:1000000012C0B2C200C32AC07EC328C027C026C007
:1000100025C042C323C022C021C020C01FC01EC0B3
:100020001DC01CC01BC011241FBECFE5D4E0DEBF25
:10003000CDBF10E0A0E6B0E0EAE5F8E002C0059030
:100040000D92A43AB107D9F721E0A4EAB0E001C0CB
:100050001D92A730B207E1F765D3FDC3D1CF80FF72
:1000600002C0949A01C0949881FF02C0959A01C081
:10007000959882FF02C0969A01C0969883FF02C0AD
:10008000979A08959798089580B38295817085997D
:10009000826086998460879988600895CF93DF9302
:1000A0008C988D988E988F98AA9AAB9AEDDF90E1F4
:1000B000899FE0011124AB98AB9AE6DFAB988C2BBB
:1000C000DF91CF910895A998E9CFCF93C82F8C9A4B
:1000D0008D9A8E9A8F9AAA98AB9A82958F70BFDF6D
:1000E000AB98AB9A8C2FBBDFAB98EDDF87FDFDCFD4
:1000F000CF910895A998E9CFA99AE7CFCF93DF933D
:10010000EC018991882311F0F7DFFBCFDF91CF91CC
:10011000089590E4699F800D11248068EBCF81E001
:10012000E9DF83EF91E00197F1F700C00000089547
:10013000CF938C9A8D9A8E9A8F9AA39AA19AA29A0B
:1001400085EA9EE00197F1F700C00000A998AB98FE
:10015000AA98C3E0AB9A83E082DFAB9881EE94E08B
:100160000197F1F700C00000C150A1F7AB9A82E0FF
:1001700076DFAB9889EF90E00197F1F700C00000BF
:1001800088E2B8DF88E0B6DF81E0B4DF86E0B2DF86
:100190008CE0CF91AFCF8091040190910501883E12
:1001A0009340A0F08091040190910501885E9340F6
:1001B00090930501809304018091020190910301C5
:1001C00001969093030180930201E5CF8091020193
:1001D00090910301883E9340F0F18091020190914B
:1001E0000301885E93409093030180930201809104
:1001F000BB008F5F8093BB008091BB008C3330F3DA
:100200008091BB008C538093BB00809106018F5F6F
:1002100080930601809106018C3370F38091060172
:100220008C53809306018091AD008F5F8093AD0069
:100230008091AD00843670F31092AD0010920601EB
:100240001092BB001092030110920201109205015E
:1002500010920401EDCF08950F931F93CF93DF9376
:1002600080910201909103012AE030E0B901CCD2E3
:1002700040E3480FEEEAF0E043878091020190915D
:100280000301C096841B9109B901BED2CB01B9010B
:10029000BBD2805D8287C0910201D0910301809121
:1002A00002019091030104E610E0B801ADD2AE0165
:1002B000481B590BCA01B801A7D2605D61878091C4
:1002C000BB00CAE06C2F94D240E3490F4783809172
:1002D000BB0090E0841B9109C096B901A9D2605D72
:1002E0006683809106016C2F83D240E3490F4483DB
:1002F0008091060190E0841B9109C096B90198D2C3
:10030000605D63838091AD006C2F72D240E3490F32
:1003100041838091AD0090E0841B9109C096B901A2
:1003200087D2605D6083DF91CF911F910F91089517
:1003300083B7846083BF89B7816089BF089583B71D
:10034000887F83BF89B78E7F89BF0895FF920F93FF
:100350001F93CF93DF938C01F62EEA01E0DE60E07D
:100360008F2DD7DEC801CADE61E080E0D2DECE018B
:10037000DF91CF911F910F91FF90C0CECF93DF936C
:1003800082B78093F10012BE2091F100C091040168
:10039000D0910501922FE8EEF3E080E0BF0148D252
:1003A000C80FD91FD0930501C09304012091F1001B
:1003B0008091F100C0910201D091030130E0322F11
:1003C0002227982F80E0BF0133D2A901481B590B87
:1003D000CA01BF012DD2C60FD71FD0930301C0930E
:1003E0000201DF91CF91D7CE1092AD00109206019D
:1003F0001092BB00109203011092020110920501AD
:100400001092040129DF40E650E062E08EEA90E0BD
:100410009DDF81E08093F00008951EDF41E750E00A
:1004200062E08EEA90E092DF81E08093CE00089552
:1004300013DFEEEAF0E0AEEBB0E081918D9380E067
:10044000EB3BF807D1F78091CB00805D8093BC0037
:100450008EE28093BD0042E850E061E08CEB90E0DA
:1004600075DF81E08093CC0008959091CB0080915E
:10047000CD00891710F41092CB00E091CB00F0E092
:10048000E952FF4F80818093AD00E091CB00F0E016
:10049000E153FF4F808180930601E091CB00F0E0B3
:1004A000EC55FF4F80818093BB00E091CB00F0E0E2
:1004B000EE0FFF1FEE50FF4F80819181909303015B
:1004C00080930201E091CB00F0E0EE0FFF1FE152BC
:1004D000FF4F808191819093050180930401809169
:1004E000CB008F5F8093CB000895E091CD00809189
:1004F000AD00F0E0E952FF4F8083E091CD008091A4
:100500000601F0E0E153FF4F8083E091CD00809140
:10051000BB00F0E0EC55FF4F8083E091CD0080916F
:10052000020190910301F0E0EE0FFF1FEE50FF4F2C
:1005300091838083E091CD00809104019091050129
:10054000F0E0EE0FFF1FE152FF4F9183808308958B
:100550008091CD00873038F411DFC7DF8091CD0066
:100560008F5F8093CD0008951F920F920FB60F9268
:1005700011242F933F934F935F936F937F938F93A8
:100580009F93AF93BF93CF93EF93FF93F7DEC09109
:10059000EF00C13079F030F0C23091F0C330C9F4CF
:1005A000C7DE14C012BEC4DE1092CD0081E080937D
:1005B000CB000CC05ADF1092CC00C093EF0009C0F2
:1005C000BEDEDCDE1092CE0083E001C082E08093CC
:1005D000EF0098B381E0892788BB98B382E0892730
:1005E00088BBFF91EF91CF91BF91AF919F918F9178
:1005F0007F916F915F914F913F912F910F900FBE1F
:100600000F901F9018951F920F920FB60F92112402
:100610002F933F934F935F936F937F938F939F930A
:10062000AF93BF93CF93EF93FF93A8DEC091EF00FA
:10063000C13091F030F0C23059F0C33099F455DF39
:100640000BC013DF1092CC0081E08093EF000AC052
:100650007FDFC093EF0006C01092CB001092F00035
:100660001092EF0098B381E0892788BB98B382E0AD
:10067000892788BBFF91EF91CF91BF91AF919F9157
:100680008F917F916F915F914F913F912F910F903B
:100690000FBE0F901F9018951F920F920FB60F92DA
:1006A00011242F933F934F935F936F937F938F9377
:1006B0009F93AF93BF93EF93FF938091020190912B
:1006C00003018F5B9F4F9093030180930201809100
:1006D000040190910501885E9D4F909305018093E0
:1006E000040159DDFF91EF91BF91AF919F918F91DF
:1006F0007F916F915F914F913F912F910F900FBE1E
:100700000F901F9018951F920F920FB60F92112401
:100710008F9381E08093AC008F910F900FBE0F906C
:100720001F901895F894B89AB99A8A98929A8B98CB
:10073000939AC19A85B7807F8A6085BF8BB78064A2
:100740008BBF8BB780688BBF12BE83ED90E30197A0
:10075000F1F700C000008AE38093B0008093B300FB
:100760008093B6001092BA001092CD001092F00063
:100770001092CE001092CC001092CB00D9DC1092D7
:10078000EF001092AC0014BC85B5856085BD89B7BB
:10079000806489BF78948091AC008130E1F78091CA
:1007A000EF00811105C08091F000811101C01CDEB5
:1007B0008091EF00813029F48091CC00811101C03B
:1007C00037DE8091EF00823039F446DD43E950E0B6
:1007D00062E08EEA90E0BADD8091EF00833029F488
:1007E0008091CE00811101C018DE1092AC00D3CFF1
:1007F000991B79E004C0991F961708F0961B881F73
:100800007A95C9F780950895AA1BBB1B51E107C0D3
:10081000AA1FBB1FA617B70710F0A61BB70B881F90
:10082000991F5A95A9F780959095BC01CD0108951F
:1008300097FB072E16F4009406D077FD08D0E4DF6E
:1008400007FC05D03EF4909581959F4F08957095D3
:0A08500061957F4F0895F894FFCFE3
:10085A005354415254202020204F535441544E495E
:10086A00004B4F4E54594E55554A20205245534538
:10087A0054004E41535445504E592020202057527F
:10088A004F430053544F5020204D4945445A594331
:04089A005A4153006C
:00000001FF
